{
  "_format": "hh-sol-artifact-1",
  "contractName": "Casino",
  "sourceName": "contracts/Casino.sol",
  "abi": [
    {
      "inputs": [
        {
          "internalType": "address",
          "name": "initialOwner",
          "type": "address"
        },
        {
          "internalType": "address",
          "name": "vrfContractAddress",
          "type": "address"
        }
      ],
      "stateMutability": "nonpayable",
      "type": "constructor"
    },
    {
      "inputs": [
        {
          "internalType": "address",
          "name": "owner",
          "type": "address"
        }
      ],
      "name": "OwnableInvalidOwner",
      "type": "error"
    },
    {
      "inputs": [
        {
          "internalType": "address",
          "name": "account",
          "type": "address"
        }
      ],
      "name": "OwnableUnauthorizedAccount",
      "type": "error"
    },
    {
      "anonymous": false,
      "inputs": [
        {
          "indexed": true,
          "internalType": "address",
          "name": "previousOwner",
          "type": "address"
        },
        {
          "indexed": true,
          "internalType": "address",
          "name": "newOwner",
          "type": "address"
        }
      ],
      "name": "OwnershipTransferred",
      "type": "event"
    },
    {
      "anonymous": false,
      "inputs": [
        {
          "indexed": false,
          "internalType": "uint256",
          "name": "NumberWin",
          "type": "uint256"
        },
        {
          "indexed": false,
          "internalType": "bool",
          "name": "result",
          "type": "bool"
        },
        {
          "indexed": false,
          "internalType": "uint256",
          "name": "tokensEarned",
          "type": "uint256"
        }
      ],
      "name": "RouletteGame",
      "type": "event"
    },
    {
      "inputs": [],
      "name": "balanceEthersSC",
      "outputs": [
        {
          "internalType": "uint256",
          "name": "",
          "type": "uint256"
        }
      ],
      "stateMutability": "view",
      "type": "function"
    },
    {
      "inputs": [
        {
          "internalType": "uint256",
          "name": "_numTokens",
          "type": "uint256"
        }
      ],
      "name": "compraTokens",
      "outputs": [],
      "stateMutability": "payable",
      "type": "function"
    },
    {
      "inputs": [
        {
          "internalType": "uint256",
          "name": "_numTokens",
          "type": "uint256"
        }
      ],
      "name": "devolverTokens",
      "outputs": [],
      "stateMutability": "payable",
      "type": "function"
    },
    {
      "inputs": [],
      "name": "getAdress",
      "outputs": [
        {
          "internalType": "address",
          "name": "",
          "type": "address"
        }
      ],
      "stateMutability": "view",
      "type": "function"
    },
    {
      "inputs": [
        {
          "internalType": "uint256",
          "name": "_start",
          "type": "uint256"
        },
        {
          "internalType": "uint256",
          "name": "_end",
          "type": "uint256"
        },
        {
          "internalType": "uint256",
          "name": "_tokensBet",
          "type": "uint256"
        }
      ],
      "name": "jugarRuleta",
      "outputs": [],
      "stateMutability": "nonpayable",
      "type": "function"
    },
    {
      "inputs": [],
      "name": "owner",
      "outputs": [
        {
          "internalType": "address",
          "name": "",
          "type": "address"
        }
      ],
      "stateMutability": "view",
      "type": "function"
    },
    {
      "inputs": [
        {
          "internalType": "uint256",
          "name": "_numTokens",
          "type": "uint256"
        }
      ],
      "name": "precioTokens",
      "outputs": [
        {
          "internalType": "uint256",
          "name": "",
          "type": "uint256"
        }
      ],
      "stateMutability": "pure",
      "type": "function"
    },
    {
      "inputs": [],
      "name": "renounceOwnership",
      "outputs": [],
      "stateMutability": "nonpayable",
      "type": "function"
    },
    {
      "inputs": [
        {
          "internalType": "uint256",
          "name": "_numEther",
          "type": "uint256"
        }
      ],
      "name": "retirarEth",
      "outputs": [],
      "stateMutability": "payable",
      "type": "function"
    },
    {
      "inputs": [],
      "name": "tokenAddress",
      "outputs": [
        {
          "internalType": "address",
          "name": "",
          "type": "address"
        }
      ],
      "stateMutability": "view",
      "type": "function"
    },
    {
      "inputs": [
        {
          "internalType": "address",
          "name": "_of",
          "type": "address"
        }
      ],
      "name": "tokenBalance",
      "outputs": [
        {
          "internalType": "uint256",
          "name": "",
          "type": "uint256"
        }
      ],
      "stateMutability": "view",
      "type": "function"
    },
    {
      "inputs": [
        {
          "internalType": "address",
          "name": "newOwner",
          "type": "address"
        }
      ],
      "name": "transferOwnership",
      "outputs": [],
      "stateMutability": "nonpayable",
      "type": "function"
    },
    {
      "inputs": [
        {
          "internalType": "address",
          "name": "_propietario",
          "type": "address"
        }
      ],
      "name": "tuHistorial",
      "outputs": [
        {
          "components": [
            {
              "internalType": "uint256",
              "name": "tokensBet",
              "type": "uint256"
            },
            {
              "internalType": "uint256",
              "name": "tokensEarned",
              "type": "uint256"
            },
            {
              "internalType": "string",
              "name": "game",
              "type": "string"
            }
          ],
          "internalType": "struct Casino.Bet[]",
          "name": "",
          "type": "tuple[]"
        }
      ],
      "stateMutability": "view",
      "type": "function"
    },
    {
      "inputs": [],
      "name": "vrfContract",
      "outputs": [
        {
          "internalType": "contract IVRF",
          "name": "",
          "type": "address"
        }
      ],
      "stateMutability": "view",
      "type": "function"
    }
  ],
  "bytecode": "0x60806040523480156200001157600080fd5b5060405162003f0438038062003f048339818101604052810190620000379190620003c5565b81600073ffffffffffffffffffffffffffffffffffffffff168173ffffffffffffffffffffffffffffffffffffffff1603620000ad5760006040517f1e4fbdf7000000000000000000000000000000000000000000000000000000008152600401620000a491906200041d565b60405180910390fd5b620000be816200028960201b60201c565b50604051620000cd906200034d565b620000d890620004eb565b604051809103906000f080158015620000f5573d6000803e3d6000fd5b50600160006101000a81548173ffffffffffffffffffffffffffffffffffffffff021916908373ffffffffffffffffffffffffffffffffffffffff160217905550600160009054906101000a900473ffffffffffffffffffffffffffffffffffffffff16600260006101000a81548173ffffffffffffffffffffffffffffffffffffffff021916908373ffffffffffffffffffffffffffffffffffffffff160217905550600160009054906101000a900473ffffffffffffffffffffffffffffffffffffffff1673ffffffffffffffffffffffffffffffffffffffff1663a0712d68620f42406040518263ffffffff1660e01b8152600401620001f9919062000579565b6020604051808303816000875af115801562000219573d6000803e3d6000fd5b505050506040513d601f19601f820116820180604052508101906200023f9190620005d3565b5080600360006101000a81548173ffffffffffffffffffffffffffffffffffffffff021916908373ffffffffffffffffffffffffffffffffffffffff160217905550505062000605565b60008060009054906101000a900473ffffffffffffffffffffffffffffffffffffffff169050816000806101000a81548173ffffffffffffffffffffffffffffffffffffffff021916908373ffffffffffffffffffffffffffffffffffffffff1602179055508173ffffffffffffffffffffffffffffffffffffffff168173ffffffffffffffffffffffffffffffffffffffff167f8be0079c531659141344cd1fd0a4f28419497f9722a3daafe3b4186f6b6457e060405160405180910390a35050565b6114278062002add83390190565b600080fd5b600073ffffffffffffffffffffffffffffffffffffffff82169050919050565b60006200038d8262000360565b9050919050565b6200039f8162000380565b8114620003ab57600080fd5b50565b600081519050620003bf8162000394565b92915050565b60008060408385031215620003df57620003de6200035b565b5b6000620003ef85828601620003ae565b92505060206200040285828601620003ae565b9150509250929050565b620004178162000380565b82525050565b60006020820190506200043460008301846200040c565b92915050565b600082825260208201905092915050565b7f436173696e6f0000000000000000000000000000000000000000000000000000600082015250565b6000620004836006836200043a565b915062000490826200044b565b602082019050919050565b7f4341530000000000000000000000000000000000000000000000000000000000600082015250565b6000620004d36003836200043a565b9150620004e0826200049b565b602082019050919050565b60006040820190508181036000830152620005068162000474565b905081810360208301526200051b81620004c4565b9050919050565b6000819050919050565b6000819050919050565b6000819050919050565b6000620005616200055b620005558462000522565b62000536565b6200052c565b9050919050565b620005738162000540565b82525050565b600060208201905062000590600083018462000568565b92915050565b60008115159050919050565b620005ad8162000596565b8114620005b957600080fd5b50565b600081519050620005cd81620005a2565b92915050565b600060208284031215620005ec57620005eb6200035b565b5b6000620005fc84828501620005bc565b91505092915050565b6124c880620006156000396000f3fe6080604052600436106100dd5760003560e01c80638da5cb5b1161007f578063c29dd7c911610059578063c29dd7c91461026e578063df5409671461028a578063eedc966a146102c7578063f2fde38b14610304576100dd565b80638da5cb5b146101ed5780639d76ea5814610218578063b934c38414610243576100dd565b80635f375c6c116100bb5780635f375c6c146101435780636858a3f3146101805780636b37d362146101ab578063715018a6146101d6576100dd565b806321a10444146100e25780632e95161c1461010b5780633897b0bc14610127575b600080fd5b3480156100ee57600080fd5b50610109600480360381019061010491906117fa565b61032d565b005b6101256004803603810190610120919061184d565b610a12565b005b610141600480360381019061013c919061184d565b610c28565b005b34801561014f57600080fd5b5061016a6004803603810190610165919061184d565b610d0e565b6040516101779190611889565b60405180910390f35b34801561018c57600080fd5b50610195610d2a565b6040516101a29190611923565b60405180910390f35b3480156101b757600080fd5b506101c0610d50565b6040516101cd919061195f565b60405180910390f35b3480156101e257600080fd5b506101eb610d7a565b005b3480156101f957600080fd5b50610202610d8e565b60405161020f919061195f565b60405180910390f35b34801561022457600080fd5b5061022d610db7565b60405161023a919061195f565b60405180910390f35b34801561024f57600080fd5b50610258610ddd565b6040516102659190611889565b60405180910390f35b6102886004803603810190610283919061184d565b610df8565b005b34801561029657600080fd5b506102b160048036038101906102ac91906119a6565b611112565b6040516102be9190611b84565b60405180910390f35b3480156102d357600080fd5b506102ee60048036038101906102e991906119a6565b611256565b6040516102fb9190611889565b60405180910390f35b34801561031057600080fd5b5061032b600480360381019061032691906119a6565b6112fb565b005b600160009054906101000a900473ffffffffffffffffffffffffffffffffffffffff1673ffffffffffffffffffffffffffffffffffffffff166370a08231336040518263ffffffff1660e01b8152600401610388919061195f565b602060405180830381865afa1580156103a5573d6000803e3d6000fd5b505050506040513d601f19601f820116820180604052508101906103c99190611bbb565b81111561040b576040517f08c379a000000000000000000000000000000000000000000000000000000000815260040161040290611c45565b60405180910390fd5b6000811161041857600080fd5b6000600360009054906101000a900473ffffffffffffffffffffffffffffffffffffffff1673ffffffffffffffffffffffffffffffffffffffff1663995e433960016040518263ffffffff1660e01b81526004016104769190611ca0565b602060405180830381865afa158015610493573d6000803e3d6000fd5b505050506040513d601f19601f820116820180604052508101906104b79190611bbb565b9050600080600160009054906101000a900473ffffffffffffffffffffffffffffffffffffffff1673ffffffffffffffffffffffffffffffffffffffff1663beabacc83330876040518463ffffffff1660e01b815260040161051b93929190611cbb565b6020604051808303816000875af115801561053a573d6000803e3d6000fd5b505050506040513d601f19601f8201168201806040525081019061055e9190611d2a565b506105a06040518060400160405280601081526020017f737461727420656e642072616e646f6d00000000000000000000000000000000815250878786611381565b61067a6040518060400160405280600f81526020017f63757272656e742062616c616e63650000000000000000000000000000000000815250600160009054906101000a900473ffffffffffffffffffffffffffffffffffffffff1673ffffffffffffffffffffffffffffffffffffffff166370a08231336040518263ffffffff1660e01b8152600401610634919061195f565b602060405180830381865afa158015610651573d6000803e3d6000fd5b505050506040513d601f19601f820116820180604052508101906106759190611bbb565b611423565b84831115801561068a5750858310155b1561098e5760019050600083036106af57600e846106a89190611d86565b91506106bf565b6002846106bc9190611d86565b91505b81600160009054906101000a900473ffffffffffffffffffffffffffffffffffffffff1673ffffffffffffffffffffffffffffffffffffffff166370a08231306040518263ffffffff1660e01b815260040161071b919061195f565b602060405180830381865afa158015610738573d6000803e3d6000fd5b505050506040513d601f19601f8201168201806040525081019061075c9190611bbb565b101561081057600160009054906101000a900473ffffffffffffffffffffffffffffffffffffffff1673ffffffffffffffffffffffffffffffffffffffff1663a0712d68620186a0846107af9190611d86565b6040518263ffffffff1660e01b81526004016107cb9190611889565b6020604051808303816000875af11580156107ea573d6000803e3d6000fd5b505050506040513d601f19601f8201168201806040525081019061080e9190611d2a565b505b600160009054906101000a900473ffffffffffffffffffffffffffffffffffffffff1673ffffffffffffffffffffffffffffffffffffffff1663beabacc83033856040518463ffffffff1660e01b815260040161086f93929190611cbb565b6020604051808303816000875af115801561088e573d6000803e3d6000fd5b505050506040513d601f19601f820116820180604052508101906108b29190611d2a565b5061098d6040518060400160405280600b81526020017f77696e2062616c616e6365000000000000000000000000000000000000000000815250600160009054906101000a900473ffffffffffffffffffffffffffffffffffffffff1673ffffffffffffffffffffffffffffffffffffffff166370a08231336040518263ffffffff1660e01b8152600401610947919061195f565b602060405180830381865afa158015610964573d6000803e3d6000fd5b505050506040513d601f19601f820116820180604052508101906109889190611bbb565b611423565b5b6109cf6040518060400160405280600781526020017f526f756c657465000000000000000000000000000000000000000000000000008152508584336114bf565b7fd25d6b7f2fbc40564b21f40e1d506ff3d5276071da39d3def6b88f6ee8a39659838284604051610a0293929190611dd7565b60405180910390a1505050505050565b60008111610a55576040517f08c379a0000000000000000000000000000000000000000000000000000000008152600401610a4c90611e80565b60405180910390fd5b600160009054906101000a900473ffffffffffffffffffffffffffffffffffffffff1673ffffffffffffffffffffffffffffffffffffffff166370a08231336040518263ffffffff1660e01b8152600401610ab0919061195f565b602060405180830381865afa158015610acd573d6000803e3d6000fd5b505050506040513d601f19601f82011682018060405250810190610af19190611bbb565b811115610b33576040517f08c379a0000000000000000000000000000000000000000000000000000000008152600401610b2a90611f12565b60405180910390fd5b600160009054906101000a900473ffffffffffffffffffffffffffffffffffffffff1673ffffffffffffffffffffffffffffffffffffffff1663beabacc83330846040518463ffffffff1660e01b8152600401610b9293929190611cbb565b6020604051808303816000875af1158015610bb1573d6000803e3d6000fd5b505050506040513d601f19601f82011682018060405250810190610bd59190611d2a565b503373ffffffffffffffffffffffffffffffffffffffff166108fc610bf983610d0e565b9081150290604051600060405180830381858888f19350505050158015610c24573d6000803e3d6000fd5b5050565b610c3061157a565b60008111610c73576040517f08c379a0000000000000000000000000000000000000000000000000000000008152600401610c6a90611e80565b60405180910390fd5b610c7b610ddd565b811115610cbd576040517f08c379a0000000000000000000000000000000000000000000000000000000008152600401610cb490611f12565b60405180910390fd5b610cc5610d8e565b73ffffffffffffffffffffffffffffffffffffffff166108fc829081150290604051600060405180830381858888f19350505050158015610d0a573d6000803e3d6000fd5b5050565b600066038d7ea4c6800082610d239190611d86565b9050919050565b600360009054906101000a900473ffffffffffffffffffffffffffffffffffffffff1681565b6000600160009054906101000a900473ffffffffffffffffffffffffffffffffffffffff16905090565b610d8261157a565b610d8c6000611601565b565b60008060009054906101000a900473ffffffffffffffffffffffffffffffffffffffff16905090565b600260009054906101000a900473ffffffffffffffffffffffffffffffffffffffff1681565b6000670de0b6b3a764000047610df39190611f61565b905090565b610e766040518060400160405280600481526020017f6665652000000000000000000000000000000000000000000000000000000000815250610e3a83610d0e565b6040518060400160405280600f81526020017f6163636f756e742062616c616e63650000000000000000000000000000000000815250346116c5565b610e7f81610d0e565b341015610ec1576040517f08c379a0000000000000000000000000000000000000000000000000000000008152600401610eb890612004565b60405180910390fd5b80600160009054906101000a900473ffffffffffffffffffffffffffffffffffffffff1673ffffffffffffffffffffffffffffffffffffffff166370a08231306040518263ffffffff1660e01b8152600401610f1d919061195f565b602060405180830381865afa158015610f3a573d6000803e3d6000fd5b505050506040513d601f19601f82011682018060405250810190610f5e9190611bbb565b101561101257600160009054906101000a900473ffffffffffffffffffffffffffffffffffffffff1673ffffffffffffffffffffffffffffffffffffffff1663a0712d68620186a083610fb19190611d86565b6040518263ffffffff1660e01b8152600401610fcd9190611889565b6020604051808303816000875af1158015610fec573d6000803e3d6000fd5b505050506040513d601f19601f820116820180604052508101906110109190611d2a565b505b3373ffffffffffffffffffffffffffffffffffffffff166108fc61103583610d0e565b346110409190612024565b9081150290604051600060405180830381858888f1935050505015801561106b573d6000803e3d6000fd5b50600160009054906101000a900473ffffffffffffffffffffffffffffffffffffffff1673ffffffffffffffffffffffffffffffffffffffff1663beabacc83033846040518463ffffffff1660e01b81526004016110cb93929190611cbb565b6020604051808303816000875af11580156110ea573d6000803e3d6000fd5b505050506040513d601f19601f8201168201806040525081019061110e9190611d2a565b5050565b6060600460008373ffffffffffffffffffffffffffffffffffffffff1673ffffffffffffffffffffffffffffffffffffffff168152602001908152602001600020805480602002602001604051908101604052809291908181526020016000905b8282101561124b578382906000526020600020906003020160405180606001604052908160008201548152602001600182015481526020016002820180546111ba90612087565b80601f01602080910402602001604051908101604052809291908181526020018280546111e690612087565b80156112335780601f1061120857610100808354040283529160200191611233565b820191906000526020600020905b81548152906001019060200180831161121657829003601f168201915b50505050508152505081526020019060010190611173565b505050509050919050565b6000600160009054906101000a900473ffffffffffffffffffffffffffffffffffffffff1673ffffffffffffffffffffffffffffffffffffffff166370a08231836040518263ffffffff1660e01b81526004016112b3919061195f565b602060405180830381865afa1580156112d0573d6000803e3d6000fd5b505050506040513d601f19601f820116820180604052508101906112f49190611bbb565b9050919050565b61130361157a565b600073ffffffffffffffffffffffffffffffffffffffff168173ffffffffffffffffffffffffffffffffffffffff16036113755760006040517f1e4fbdf700000000000000000000000000000000000000000000000000000000815260040161136c919061195f565b60405180910390fd5b61137e81611601565b50565b61141d8484848460405160240161139b94939291906120f1565b6040516020818303038152906040527fa7a87853000000000000000000000000000000000000000000000000000000007bffffffffffffffffffffffffffffffffffffffffffffffffffffffff19166020820180517bffffffffffffffffffffffffffffffffffffffffffffffffffffffff8381831617835250505050611767565b50505050565b6114bb828260405160240161143992919061213d565b6040516020818303038152906040527fb60e72cc000000000000000000000000000000000000000000000000000000007bffffffffffffffffffffffffffffffffffffffffffffffffffffffff19166020820180517bffffffffffffffffffffffffffffffffffffffffffffffffffffffff8381831617835250505050611767565b5050565b60006040518060600160405280858152602001848152602001868152509050600460008373ffffffffffffffffffffffffffffffffffffffff1673ffffffffffffffffffffffffffffffffffffffff16815260200190815260200160002081908060018154018082558091505060019003906000526020600020906003020160009091909190915060008201518160000155602082015181600101556040820151816002019081611570919061233e565b5050505050505050565b611582611781565b73ffffffffffffffffffffffffffffffffffffffff166115a0610d8e565b73ffffffffffffffffffffffffffffffffffffffff16146115ff576115c3611781565b6040517f118cdaa70000000000000000000000000000000000000000000000000000000081526004016115f6919061195f565b60405180910390fd5b565b60008060009054906101000a900473ffffffffffffffffffffffffffffffffffffffff169050816000806101000a81548173ffffffffffffffffffffffffffffffffffffffff021916908373ffffffffffffffffffffffffffffffffffffffff1602179055508173ffffffffffffffffffffffffffffffffffffffff168173ffffffffffffffffffffffffffffffffffffffff167f8be0079c531659141344cd1fd0a4f28419497f9722a3daafe3b4186f6b6457e060405160405180910390a35050565b611761848484846040516024016116df9493929190612410565b6040516020818303038152906040527fc67ea9d1000000000000000000000000000000000000000000000000000000007bffffffffffffffffffffffffffffffffffffffffffffffffffffffff19166020820180517bffffffffffffffffffffffffffffffffffffffffffffffffffffffff8381831617835250505050611767565b50505050565b61177e816117766117896117aa565b63ffffffff16565b50565b600033905090565b60006a636f6e736f6c652e6c6f679050600080835160208501845afa505050565b6117b5819050919050565b6117bd612463565b565b600080fd5b6000819050919050565b6117d7816117c4565b81146117e257600080fd5b50565b6000813590506117f4816117ce565b92915050565b600080600060608486031215611813576118126117bf565b5b6000611821868287016117e5565b9350506020611832868287016117e5565b9250506040611843868287016117e5565b9150509250925092565b600060208284031215611863576118626117bf565b5b6000611871848285016117e5565b91505092915050565b611883816117c4565b82525050565b600060208201905061189e600083018461187a565b92915050565b600073ffffffffffffffffffffffffffffffffffffffff82169050919050565b6000819050919050565b60006118e96118e46118df846118a4565b6118c4565b6118a4565b9050919050565b60006118fb826118ce565b9050919050565b600061190d826118f0565b9050919050565b61191d81611902565b82525050565b60006020820190506119386000830184611914565b92915050565b6000611949826118a4565b9050919050565b6119598161193e565b82525050565b60006020820190506119746000830184611950565b92915050565b6119838161193e565b811461198e57600080fd5b50565b6000813590506119a08161197a565b92915050565b6000602082840312156119bc576119bb6117bf565b5b60006119ca84828501611991565b91505092915050565b600081519050919050565b600082825260208201905092915050565b6000819050602082019050919050565b611a08816117c4565b82525050565b600081519050919050565b600082825260208201905092915050565b60005b83811015611a48578082015181840152602081019050611a2d565b60008484015250505050565b6000601f19601f8301169050919050565b6000611a7082611a0e565b611a7a8185611a19565b9350611a8a818560208601611a2a565b611a9381611a54565b840191505092915050565b6000606083016000830151611ab660008601826119ff565b506020830151611ac960208601826119ff565b5060408301518482036040860152611ae18282611a65565b9150508091505092915050565b6000611afa8383611a9e565b905092915050565b6000602082019050919050565b6000611b1a826119d3565b611b2481856119de565b935083602082028501611b36856119ef565b8060005b85811015611b725784840389528151611b538582611aee565b9450611b5e83611b02565b925060208a01995050600181019050611b3a565b50829750879550505050505092915050565b60006020820190508181036000830152611b9e8184611b0f565b905092915050565b600081519050611bb5816117ce565b92915050565b600060208284031215611bd157611bd06117bf565b5b6000611bdf84828501611ba6565b91505092915050565b600082825260208201905092915050565b7f20496e73756666696369656e7420746f6b656e00000000000000000000000000600082015250565b6000611c2f601383611be8565b9150611c3a82611bf9565b602082019050919050565b60006020820190508181036000830152611c5e81611c22565b9050919050565b6000819050919050565b6000611c8a611c85611c8084611c65565b6118c4565b6117c4565b9050919050565b611c9a81611c6f565b82525050565b6000602082019050611cb56000830184611c91565b92915050565b6000606082019050611cd06000830186611950565b611cdd6020830185611950565b611cea604083018461187a565b949350505050565b60008115159050919050565b611d0781611cf2565b8114611d1257600080fd5b50565b600081519050611d2481611cfe565b92915050565b600060208284031215611d4057611d3f6117bf565b5b6000611d4e84828501611d15565b91505092915050565b7f4e487b7100000000000000000000000000000000000000000000000000000000600052601160045260246000fd5b6000611d91826117c4565b9150611d9c836117c4565b9250828202611daa816117c4565b91508282048414831517611dc157611dc0611d57565b5b5092915050565b611dd181611cf2565b82525050565b6000606082019050611dec600083018661187a565b611df96020830185611dc8565b611e06604083018461187a565b949350505050565b7f596f75206e65656420746f2072657475726e2061206e756d626572206f66207460008201527f6f6b656e732067726561746572207468616e2030000000000000000000000000602082015250565b6000611e6a603483611be8565b9150611e7582611e0e565b604082019050919050565b60006020820190508181036000830152611e9981611e5d565b9050919050565b7f596f7520646f206e6f7420686176652074686520746f6b656e7320796f75207760008201527f616e7420746f2072657475726e00000000000000000000000000000000000000602082015250565b6000611efc602d83611be8565b9150611f0782611ea0565b604082019050919050565b60006020820190508181036000830152611f2b81611eef565b9050919050565b7f4e487b7100000000000000000000000000000000000000000000000000000000600052601260045260246000fd5b6000611f6c826117c4565b9150611f77836117c4565b925082611f8757611f86611f32565b5b828204905092915050565b7f42757920666577657220746f6b656e73206f72207061792077697468206d6f7260008201527f6520657468657273000000000000000000000000000000000000000000000000602082015250565b6000611fee602883611be8565b9150611ff982611f92565b604082019050919050565b6000602082019050818103600083015261201d81611fe1565b9050919050565b600061202f826117c4565b915061203a836117c4565b925082820390508181111561205257612051611d57565b5b92915050565b7f4e487b7100000000000000000000000000000000000000000000000000000000600052602260045260246000fd5b6000600282049050600182168061209f57607f821691505b6020821081036120b2576120b1612058565b5b50919050565b60006120c382611a0e565b6120cd8185611be8565b93506120dd818560208601611a2a565b6120e681611a54565b840191505092915050565b6000608082019050818103600083015261210b81876120b8565b905061211a602083018661187a565b612127604083018561187a565b612134606083018461187a565b95945050505050565b6000604082019050818103600083015261215781856120b8565b9050612166602083018461187a565b9392505050565b7f4e487b7100000000000000000000000000000000000000000000000000000000600052604160045260246000fd5b60008190508160005260206000209050919050565b60006020601f8301049050919050565b600082821b905092915050565b6000600883026121fe7fffffffffffffffffffffffffffffffffffffffffffffffffffffffffffffffff826121c1565b61220886836121c1565b95508019841693508086168417925050509392505050565b600061223b612236612231846117c4565b6118c4565b6117c4565b9050919050565b6000819050919050565b61225583612220565b61226961226182612242565b8484546121ce565b825550505050565b600090565b61227e612271565b61228981848461224c565b505050565b5b818110156122ad576122a2600082612276565b60018101905061228f565b5050565b601f8211156122f2576122c38161219c565b6122cc846121b1565b810160208510156122db578190505b6122ef6122e7856121b1565b83018261228e565b50505b505050565b600082821c905092915050565b6000612315600019846008026122f7565b1980831691505092915050565b600061232e8383612304565b9150826002028217905092915050565b61234782611a0e565b67ffffffffffffffff8111156123605761235f61216d565b5b61236a8254612087565b6123758282856122b1565b600060209050601f8311600181146123a85760008415612396578287015190505b6123a08582612322565b865550612408565b601f1984166123b68661219c565b60005b828110156123de578489015182556001820191506020850194506020810190506123b9565b868310156123fb57848901516123f7601f891682612304565b8355505b6001600288020188555050505b505050505050565b6000608082019050818103600083015261242a81876120b8565b9050612439602083018661187a565b818103604083015261244b81856120b8565b905061245a606083018461187a565b95945050505050565b7f4e487b7100000000000000000000000000000000000000000000000000000000600052605160045260246000fdfea2646970667358221220e91092708463623a23f1da271121e3fbc13914afe06ff6d53aebb631827290e664736f6c6343000814003360806040523480156200001157600080fd5b506040516200142738038062001427833981810160405281019062000037919062000237565b816002908162000048919062000507565b5080600390816200005a919062000507565b5033600460006101000a81548173ffffffffffffffffffffffffffffffffffffffff021916908373ffffffffffffffffffffffffffffffffffffffff1602179055505050620005ee565b6000604051905090565b600080fd5b600080fd5b600080fd5b600080fd5b6000601f19601f8301169050919050565b7f4e487b7100000000000000000000000000000000000000000000000000000000600052604160045260246000fd5b6200010d82620000c2565b810181811067ffffffffffffffff821117156200012f576200012e620000d3565b5b80604052505050565b600062000144620000a4565b905062000152828262000102565b919050565b600067ffffffffffffffff821115620001755762000174620000d3565b5b6200018082620000c2565b9050602081019050919050565b60005b83811015620001ad57808201518184015260208101905062000190565b60008484015250505050565b6000620001d0620001ca8462000157565b62000138565b905082815260208101848484011115620001ef57620001ee620000bd565b5b620001fc8482856200018d565b509392505050565b600082601f8301126200021c576200021b620000b8565b5b81516200022e848260208601620001b9565b91505092915050565b60008060408385031215620002515762000250620000ae565b5b600083015167ffffffffffffffff811115620002725762000271620000b3565b5b620002808582860162000204565b925050602083015167ffffffffffffffff811115620002a457620002a3620000b3565b5b620002b28582860162000204565b9150509250929050565b600081519050919050565b7f4e487b7100000000000000000000000000000000000000000000000000000000600052602260045260246000fd5b600060028204905060018216806200030f57607f821691505b602082108103620003255762000324620002c7565b5b50919050565b60008190508160005260206000209050919050565b60006020601f8301049050919050565b600082821b905092915050565b6000600883026200038f7fffffffffffffffffffffffffffffffffffffffffffffffffffffffffffffffff8262000350565b6200039b868362000350565b95508019841693508086168417925050509392505050565b6000819050919050565b6000819050919050565b6000620003e8620003e2620003dc84620003b3565b620003bd565b620003b3565b9050919050565b6000819050919050565b6200040483620003c7565b6200041c6200041382620003ef565b8484546200035d565b825550505050565b600090565b6200043362000424565b62000440818484620003f9565b505050565b5b8181101562000468576200045c60008262000429565b60018101905062000446565b5050565b601f821115620004b75762000481816200032b565b6200048c8462000340565b810160208510156200049c578190505b620004b4620004ab8562000340565b83018262000445565b50505b505050565b600082821c905092915050565b6000620004dc60001984600802620004bc565b1980831691505092915050565b6000620004f78383620004c9565b9150826002028217905092915050565b6200051282620002bc565b67ffffffffffffffff8111156200052e576200052d620000d3565b5b6200053a8254620002f6565b620005478282856200046c565b600060209050601f8311600181146200057f57600084156200056a578287015190505b620005768582620004e9565b865550620005e6565b601f1984166200058f866200032b565b60005b82811015620005b95784890151825560018201915060208501945060208101905062000592565b86831015620005d95784890151620005d5601f891682620004c9565b8355505b6001600288020188555050505b505050505050565b610e2980620005fe6000396000f3fe608060405234801561001057600080fd5b50600436106100885760003560e01c80638da5cb5b1161005b5780638da5cb5b1461011757806395d89b4114610135578063a0712d6814610153578063beabacc81461018357610088565b806306fdde031461008d57806318160ddd146100ab578063313ce567146100c957806370a08231146100e7575b600080fd5b6100956101b3565b6040516100a29190610853565b60405180910390f35b6100b3610245565b6040516100c0919061088e565b60405180910390f35b6100d161024f565b6040516100de91906108c5565b60405180910390f35b61010160048036038101906100fc9190610943565b610254565b60405161010e919061088e565b60405180910390f35b61011f61029c565b60405161012c919061097f565b60405180910390f35b61013d6102c2565b60405161014a9190610853565b60405180910390f35b61016d600480360381019061016891906109c6565b610354565b60405161017a9190610a0e565b60405180910390f35b61019d60048036038101906101989190610a29565b6103fb565b6040516101aa9190610a0e565b60405180910390f35b6060600280546101c290610aab565b80601f01602080910402602001604051908101604052809291908181526020018280546101ee90610aab565b801561023b5780601f106102105761010080835404028352916020019161023b565b820191906000526020600020905b81548152906001019060200180831161021e57829003601f168201915b5050505050905090565b6000600154905090565b600090565b60008060008373ffffffffffffffffffffffffffffffffffffffff1673ffffffffffffffffffffffffffffffffffffffff168152602001908152602001600020549050919050565b600460009054906101000a900473ffffffffffffffffffffffffffffffffffffffff1681565b6060600380546102d190610aab565b80601f01602080910402602001604051908101604052809291908181526020018280546102fd90610aab565b801561034a5780601f1061031f5761010080835404028352916020019161034a565b820191906000526020600020905b81548152906001019060200180831161032d57829003601f168201915b5050505050905090565b600033600460009054906101000a900473ffffffffffffffffffffffffffffffffffffffff1673ffffffffffffffffffffffffffffffffffffffff168173ffffffffffffffffffffffffffffffffffffffff16146103e7576040517f08c379a00000000000000000000000000000000000000000000000000000000081526004016103de90610b4e565b60405180910390fd5b6103f13384610413565b6001915050919050565b600061040884848461055a565b600190509392505050565b600073ffffffffffffffffffffffffffffffffffffffff168273ffffffffffffffffffffffffffffffffffffffff1603610482576040517f08c379a000000000000000000000000000000000000000000000000000000000815260040161047990610bba565b60405180910390fd5b80600160008282546104949190610c09565b92505081905550806000808473ffffffffffffffffffffffffffffffffffffffff1673ffffffffffffffffffffffffffffffffffffffff16815260200190815260200160002060008282546104e99190610c09565b925050819055508173ffffffffffffffffffffffffffffffffffffffff16600073ffffffffffffffffffffffffffffffffffffffff167fddf252ad1be2c89b69c2b068fc378daa952ba7f163c4a11628f55a4df523b3ef8360405161054e919061088e565b60405180910390a35050565b600073ffffffffffffffffffffffffffffffffffffffff168373ffffffffffffffffffffffffffffffffffffffff16036105c9576040517f08c379a00000000000000000000000000000000000000000000000000000000081526004016105c090610caf565b60405180910390fd5b600073ffffffffffffffffffffffffffffffffffffffff168273ffffffffffffffffffffffffffffffffffffffff1603610638576040517f08c379a000000000000000000000000000000000000000000000000000000000815260040161062f90610d41565b60405180910390fd5b60008060008573ffffffffffffffffffffffffffffffffffffffff1673ffffffffffffffffffffffffffffffffffffffff168152602001908152602001600020549050818110156106be576040517f08c379a00000000000000000000000000000000000000000000000000000000081526004016106b590610dd3565b60405180910390fd5b8181036000808673ffffffffffffffffffffffffffffffffffffffff1673ffffffffffffffffffffffffffffffffffffffff16815260200190815260200160002081905550816000808573ffffffffffffffffffffffffffffffffffffffff1673ffffffffffffffffffffffffffffffffffffffff16815260200190815260200160002060008282546107519190610c09565b925050819055508273ffffffffffffffffffffffffffffffffffffffff168473ffffffffffffffffffffffffffffffffffffffff167fddf252ad1be2c89b69c2b068fc378daa952ba7f163c4a11628f55a4df523b3ef846040516107b5919061088e565b60405180910390a350505050565b600081519050919050565b600082825260208201905092915050565b60005b838110156107fd5780820151818401526020810190506107e2565b60008484015250505050565b6000601f19601f8301169050919050565b6000610825826107c3565b61082f81856107ce565b935061083f8185602086016107df565b61084881610809565b840191505092915050565b6000602082019050818103600083015261086d818461081a565b905092915050565b6000819050919050565b61088881610875565b82525050565b60006020820190506108a3600083018461087f565b92915050565b600060ff82169050919050565b6108bf816108a9565b82525050565b60006020820190506108da60008301846108b6565b92915050565b600080fd5b600073ffffffffffffffffffffffffffffffffffffffff82169050919050565b6000610910826108e5565b9050919050565b61092081610905565b811461092b57600080fd5b50565b60008135905061093d81610917565b92915050565b600060208284031215610959576109586108e0565b5b60006109678482850161092e565b91505092915050565b61097981610905565b82525050565b60006020820190506109946000830184610970565b92915050565b6109a381610875565b81146109ae57600080fd5b50565b6000813590506109c08161099a565b92915050565b6000602082840312156109dc576109db6108e0565b5b60006109ea848285016109b1565b91505092915050565b60008115159050919050565b610a08816109f3565b82525050565b6000602082019050610a2360008301846109ff565b92915050565b600080600060608486031215610a4257610a416108e0565b5b6000610a508682870161092e565b9350506020610a618682870161092e565b9250506040610a72868287016109b1565b9150509250925092565b7f4e487b7100000000000000000000000000000000000000000000000000000000600052602260045260246000fd5b60006002820490506001821680610ac357607f821691505b602082108103610ad657610ad5610a7c565b5b50919050565b7f596f7520646f206e6f742068617665207065726d697373696f6e7320746f207260008201527f756e20746869732066756e6374696f6e2e000000000000000000000000000000602082015250565b6000610b386031836107ce565b9150610b4382610adc565b604082019050919050565b60006020820190508181036000830152610b6781610b2b565b9050919050565b7f45524332303a206d696e7420746f20746865207a65726f206164647265737300600082015250565b6000610ba4601f836107ce565b9150610baf82610b6e565b602082019050919050565b60006020820190508181036000830152610bd381610b97565b9050919050565b7f4e487b7100000000000000000000000000000000000000000000000000000000600052601160045260246000fd5b6000610c1482610875565b9150610c1f83610875565b9250828201905080821115610c3757610c36610bda565b5b92915050565b7f45524332303a207472616e736665722066726f6d20746865207a65726f20616460008201527f6472657373000000000000000000000000000000000000000000000000000000602082015250565b6000610c996025836107ce565b9150610ca482610c3d565b604082019050919050565b60006020820190508181036000830152610cc881610c8c565b9050919050565b7f45524332303a207472616e7366657220746f20746865207a65726f206164647260008201527f6573730000000000000000000000000000000000000000000000000000000000602082015250565b6000610d2b6023836107ce565b9150610d3682610ccf565b604082019050919050565b60006020820190508181036000830152610d5a81610d1e565b9050919050565b7f45524332303a207472616e7366657220616d6f756e742065786365656473206260008201527f616c616e63650000000000000000000000000000000000000000000000000000602082015250565b6000610dbd6026836107ce565b9150610dc882610d61565b604082019050919050565b60006020820190508181036000830152610dec81610db0565b905091905056fea2646970667358221220fa156af7a8d98ea539fe9229da5189de7752d9d46c515845e0e443ec036caa6e64736f6c63430008140033",
  "linkReferences": {},
  "deployedLinkReferences": {}
}