{"contracts/Greeter.sol":{"Greeter":{"abi":[{"inputs":[{"internalType":"string","name":"_greeting","type":"string"}],"stateMutability":"nonpayable","type":"constructor"},{"inputs":[],"name":"greet","outputs":[{"internalType":"string","name":"","type":"string"}],"stateMutability":"view","type":"function"},{"inputs":[{"internalType":"string","name":"_greeting","type":"string"}],"name":"setGreeting","outputs":[],"stateMutability":"nonpayable","type":"function"}],"evm":{"bytecode":{"linkReferences":{},"object":"60806040523480156200001157600080fd5b50604051620010453803806200104583398181016040528101906200003791906200031e565b620000626040518060600160405280602281526020016200102360229139826200007b60201b60201c565b8060009081620000739190620005ba565b50506200075d565b6200011d828260405160240162000094929190620006f3565b6040516020818303038152906040527f4b5c4277000000000000000000000000000000000000000000000000000000007bffffffffffffffffffffffffffffffffffffffffffffffffffffffff19166020820180517bffffffffffffffffffffffffffffffffffffffffffffffffffffffff83818316178352505050506200012160201b60201c565b5050565b6200014781620001426200014a60201b620001c7176200016b60201b60201c565b60201c565b50565b60006a636f6e736f6c652e6c6f679050600080835160208501845afa505050565b6200017f60201b620002ac17819050919050565b620001896200072e565b565b6000604051905090565b600080fd5b600080fd5b600080fd5b600080fd5b6000601f19601f8301169050919050565b7f4e487b7100000000000000000000000000000000000000000000000000000000600052604160045260246000fd5b620001f482620001a9565b810181811067ffffffffffffffff82111715620002165762000215620001ba565b5b80604052505050565b60006200022b6200018b565b9050620002398282620001e9565b919050565b600067ffffffffffffffff8211156200025c576200025b620001ba565b5b6200026782620001a9565b9050602081019050919050565b60005b838110156200029457808201518184015260208101905062000277565b60008484015250505050565b6000620002b7620002b1846200023e565b6200021f565b905082815260208101848484011115620002d657620002d5620001a4565b5b620002e384828562000274565b509392505050565b600082601f8301126200030357620003026200019f565b5b815162000315848260208601620002a0565b91505092915050565b60006020828403121562000337576200033662000195565b5b600082015167ffffffffffffffff8111156200035857620003576200019a565b5b6200036684828501620002eb565b91505092915050565b600081519050919050565b7f4e487b7100000000000000000000000000000000000000000000000000000000600052602260045260246000fd5b60006002820490506001821680620003c257607f821691505b602082108103620003d857620003d76200037a565b5b50919050565b60008190508160005260206000209050919050565b60006020601f8301049050919050565b600082821b905092915050565b600060088302620004427fffffffffffffffffffffffffffffffffffffffffffffffffffffffffffffffff8262000403565b6200044e868362000403565b95508019841693508086168417925050509392505050565b6000819050919050565b6000819050919050565b60006200049b620004956200048f8462000466565b62000470565b62000466565b9050919050565b6000819050919050565b620004b7836200047a565b620004cf620004c682620004a2565b84845462000410565b825550505050565b600090565b620004e6620004d7565b620004f3818484620004ac565b505050565b5b818110156200051b576200050f600082620004dc565b600181019050620004f9565b5050565b601f8211156200056a576200053481620003de565b6200053f84620003f3565b810160208510156200054f578190505b620005676200055e85620003f3565b830182620004f8565b50505b505050565b600082821c905092915050565b60006200058f600019846008026200056f565b1980831691505092915050565b6000620005aa83836200057c565b9150826002028217905092915050565b620005c5826200036f565b67ffffffffffffffff811115620005e157620005e0620001ba565b5b620005ed8254620003a9565b620005fa8282856200051f565b600060209050601f8311600181146200063257600084156200061d578287015190505b6200062985826200059c565b86555062000699565b601f1984166200064286620003de565b60005b828110156200066c5784890151825560018201915060208501945060208101905062000645565b868310156200068c578489015162000688601f8916826200057c565b8355505b6001600288020188555050505b505050505050565b600082825260208201905092915050565b6000620006bf826200036f565b620006cb8185620006a1565b9350620006dd81856020860162000274565b620006e881620001a9565b840191505092915050565b600060408201905081810360008301526200070f8185620006b2565b90508181036020830152620007258184620006b2565b90509392505050565b7f4e487b7100000000000000000000000000000000000000000000000000000000600052605160045260246000fd5b6108b6806200076d6000396000f3fe608060405234801561001057600080fd5b50600436106100365760003560e01c8063a41368621461003b578063cfae321714610057575b600080fd5b61005560048036038101906100509190610410565b610075565b005b61005f610135565b60405161006c91906104d8565b60405180910390f35b61012260405180606001604052806023815260200161085e602391396000805461009e90610529565b80601f01602080910402602001604051908101604052809291908181526020018280546100ca90610529565b80156101175780601f106100ec57610100808354040283529160200191610117565b820191906000526020600020905b8154815290600101906020018083116100fa57829003601f168201915b5050505050836101e8565b80600090816101319190610710565b5050565b60606000805461014490610529565b80601f016020809104026020016040519081016040528092919081815260200182805461017090610529565b80156101bd5780601f10610192576101008083540402835291602001916101bd565b820191906000526020600020905b8154815290600101906020018083116101a057829003601f168201915b5050505050905090565b60006a636f6e736f6c652e6c6f679050600080835160208501845afa505050565b610282838383604051602401610200939291906107e2565b6040516020818303038152906040527f2ced7cef000000000000000000000000000000000000000000000000000000007bffffffffffffffffffffffffffffffffffffffffffffffffffffffff19166020820180517bffffffffffffffffffffffffffffffffffffffffffffffffffffffff8381831617835250505050610287565b505050565b61029e816102966101c76102a1565b63ffffffff16565b50565b6102ac819050919050565b6102b461082e565b565b6000604051905090565b600080fd5b600080fd5b600080fd5b600080fd5b6000601f19601f8301169050919050565b7f4e487b7100000000000000000000000000000000000000000000000000000000600052604160045260246000fd5b61031d826102d4565b810181811067ffffffffffffffff8211171561033c5761033b6102e5565b5b80604052505050565b600061034f6102b6565b905061035b8282610314565b919050565b600067ffffffffffffffff82111561037b5761037a6102e5565b5b610384826102d4565b9050602081019050919050565b82818337600083830152505050565b60006103b36103ae84610360565b610345565b9050828152602081018484840111156103cf576103ce6102cf565b5b6103da848285610391565b509392505050565b600082601f8301126103f7576103f66102ca565b5b81356104078482602086016103a0565b91505092915050565b600060208284031215610426576104256102c0565b5b600082013567ffffffffffffffff811115610444576104436102c5565b5b610450848285016103e2565b91505092915050565b600081519050919050565b600082825260208201905092915050565b60005b83811015610493578082015181840152602081019050610478565b60008484015250505050565b60006104aa82610459565b6104b48185610464565b93506104c4818560208601610475565b6104cd816102d4565b840191505092915050565b600060208201905081810360008301526104f2818461049f565b905092915050565b7f4e487b7100000000000000000000000000000000000000000000000000000000600052602260045260246000fd5b6000600282049050600182168061054157607f821691505b602082108103610554576105536104fa565b5b50919050565b60008190508160005260206000209050919050565b60006020601f8301049050919050565b600082821b905092915050565b6000600883026105bc7fffffffffffffffffffffffffffffffffffffffffffffffffffffffffffffffff8261057f565b6105c6868361057f565b95508019841693508086168417925050509392505050565b6000819050919050565b6000819050919050565b600061060d610608610603846105de565b6105e8565b6105de565b9050919050565b6000819050919050565b610627836105f2565b61063b61063382610614565b84845461058c565b825550505050565b600090565b610650610643565b61065b81848461061e565b505050565b5b8181101561067f57610674600082610648565b600181019050610661565b5050565b601f8211156106c4576106958161055a565b61069e8461056f565b810160208510156106ad578190505b6106c16106b98561056f565b830182610660565b50505b505050565b600082821c905092915050565b60006106e7600019846008026106c9565b1980831691505092915050565b600061070083836106d6565b9150826002028217905092915050565b61071982610459565b67ffffffffffffffff811115610732576107316102e5565b5b61073c8254610529565b610747828285610683565b600060209050601f83116001811461077a5760008415610768578287015190505b61077285826106f4565b8655506107da565b601f1984166107888661055a565b60005b828110156107b05784890151825560018201915060208501945060208101905061078b565b868310156107cd57848901516107c9601f8916826106d6565b8355505b6001600288020188555050505b505050505050565b600060608201905081810360008301526107fc818661049f565b90508181036020830152610810818561049f565b90508181036040830152610824818461049f565b9050949350505050565b7f4e487b7100000000000000000000000000000000000000000000000000000000600052605160045260246000fdfe4368616e67696e67206772656574696e672066726f6d202725732720746f2027257327a26469706673582212204badd371e9962a615bef365ddfe89296efdf8d1748cf2162923fa0a3ba9b64c264736f6c634300081400334465706c6f79696e67206120477265657465722077697468206772656574696e673a","opcodes":"PUSH1 0x80 PUSH1 0x40 MSTORE CALLVALUE DUP1 ISZERO PUSH3 0x11 JUMPI PUSH1 0x0 DUP1 REVERT JUMPDEST POP PUSH1 0x40 MLOAD PUSH3 0x1045 CODESIZE SUB DUP1 PUSH3 0x1045 DUP4 CODECOPY DUP2 DUP2 ADD PUSH1 0x40 MSTORE DUP2 ADD SWAP1 PUSH3 0x37 SWAP2 SWAP1 PUSH3 0x31E JUMP JUMPDEST PUSH3 0x62 PUSH1 0x40 MLOAD DUP1 PUSH1 0x60 ADD PUSH1 0x40 MSTORE DUP1 PUSH1 0x22 DUP2 MSTORE PUSH1 0x20 ADD PUSH3 0x1023 PUSH1 0x22 SWAP2 CODECOPY DUP3 PUSH3 0x7B PUSH1 0x20 SHL PUSH1 0x20 SHR JUMP JUMPDEST DUP1 PUSH1 0x0 SWAP1 DUP2 PUSH3 0x73 SWAP2 SWAP1 PUSH3 0x5BA JUMP JUMPDEST POP POP PUSH3 0x75D JUMP JUMPDEST PUSH3 0x11D DUP3 DUP3 PUSH1 0x40 MLOAD PUSH1 0x24 ADD PUSH3 0x94 SWAP3 SWAP2 SWAP1 PUSH3 0x6F3 JUMP JUMPDEST PUSH1 0x40 MLOAD PUSH1 0x20 DUP2 DUP4 SUB SUB DUP2 MSTORE SWAP1 PUSH1 0x40 MSTORE PUSH32 0x4B5C427700000000000000000000000000000000000000000000000000000000 PUSH28 0xFFFFFFFFFFFFFFFFFFFFFFFFFFFFFFFFFFFFFFFFFFFFFFFFFFFFFFFF NOT AND PUSH1 0x20 DUP3 ADD DUP1 MLOAD PUSH28 0xFFFFFFFFFFFFFFFFFFFFFFFFFFFFFFFFFFFFFFFFFFFFFFFFFFFFFFFF DUP4 DUP2 DUP4 AND OR DUP4 MSTORE POP POP POP POP PUSH3 0x121 PUSH1 0x20 SHL PUSH1 0x20 SHR JUMP JUMPDEST POP POP JUMP JUMPDEST PUSH3 0x147 DUP2 PUSH3 0x142 PUSH3 0x14A PUSH1 0x20 SHL PUSH3 0x1C7 OR PUSH3 0x16B PUSH1 0x20 SHL PUSH1 0x20 SHR JUMP JUMPDEST PUSH1 0x20 SHR JUMP JUMPDEST POP JUMP JUMPDEST PUSH1 0x0 PUSH11 0x636F6E736F6C652E6C6F67 SWAP1 POP PUSH1 0x0 DUP1 DUP4 MLOAD PUSH1 0x20 DUP6 ADD DUP5 GAS STATICCALL POP POP POP JUMP JUMPDEST PUSH3 0x17F PUSH1 0x20 SHL PUSH3 0x2AC OR DUP2 SWAP1 POP SWAP2 SWAP1 POP JUMP JUMPDEST PUSH3 0x189 PUSH3 0x72E JUMP JUMPDEST JUMP JUMPDEST PUSH1 0x0 PUSH1 0x40 MLOAD SWAP1 POP SWAP1 JUMP JUMPDEST PUSH1 0x0 DUP1 REVERT JUMPDEST PUSH1 0x0 DUP1 REVERT JUMPDEST PUSH1 0x0 DUP1 REVERT JUMPDEST PUSH1 0x0 DUP1 REVERT JUMPDEST PUSH1 0x0 PUSH1 0x1F NOT PUSH1 0x1F DUP4 ADD AND SWAP1 POP SWAP2 SWAP1 POP JUMP JUMPDEST PUSH32 0x4E487B7100000000000000000000000000000000000000000000000000000000 PUSH1 0x0 MSTORE PUSH1 0x41 PUSH1 0x4 MSTORE PUSH1 0x24 PUSH1 0x0 REVERT JUMPDEST PUSH3 0x1F4 DUP3 PUSH3 0x1A9 JUMP JUMPDEST DUP2 ADD DUP2 DUP2 LT PUSH8 0xFFFFFFFFFFFFFFFF DUP3 GT OR ISZERO PUSH3 0x216 JUMPI PUSH3 0x215 PUSH3 0x1BA JUMP JUMPDEST JUMPDEST DUP1 PUSH1 0x40 MSTORE POP POP POP JUMP JUMPDEST PUSH1 0x0 PUSH3 0x22B PUSH3 0x18B JUMP JUMPDEST SWAP1 POP PUSH3 0x239 DUP3 DUP3 PUSH3 0x1E9 JUMP JUMPDEST SWAP2 SWAP1 POP JUMP JUMPDEST PUSH1 0x0 PUSH8 0xFFFFFFFFFFFFFFFF DUP3 GT ISZERO PUSH3 0x25C JUMPI PUSH3 0x25B PUSH3 0x1BA JUMP JUMPDEST JUMPDEST PUSH3 0x267 DUP3 PUSH3 0x1A9 JUMP JUMPDEST SWAP1 POP PUSH1 0x20 DUP2 ADD SWAP1 POP SWAP2 SWAP1 POP JUMP JUMPDEST PUSH1 0x0 JUMPDEST DUP4 DUP2 LT ISZERO PUSH3 0x294 JUMPI DUP1 DUP3 ADD MLOAD DUP2 DUP5 ADD MSTORE PUSH1 0x20 DUP2 ADD SWAP1 POP PUSH3 0x277 JUMP JUMPDEST PUSH1 0x0 DUP5 DUP5 ADD MSTORE POP POP POP POP JUMP JUMPDEST PUSH1 0x0 PUSH3 0x2B7 PUSH3 0x2B1 DUP5 PUSH3 0x23E JUMP JUMPDEST PUSH3 0x21F JUMP JUMPDEST SWAP1 POP DUP3 DUP2 MSTORE PUSH1 0x20 DUP2 ADD DUP5 DUP5 DUP5 ADD GT ISZERO PUSH3 0x2D6 JUMPI PUSH3 0x2D5 PUSH3 0x1A4 JUMP JUMPDEST JUMPDEST PUSH3 0x2E3 DUP5 DUP3 DUP6 PUSH3 0x274 JUMP JUMPDEST POP SWAP4 SWAP3 POP POP POP JUMP JUMPDEST PUSH1 0x0 DUP3 PUSH1 0x1F DUP4 ADD SLT PUSH3 0x303 JUMPI PUSH3 0x302 PUSH3 0x19F JUMP JUMPDEST JUMPDEST DUP2 MLOAD PUSH3 0x315 DUP5 DUP3 PUSH1 0x20 DUP7 ADD PUSH3 0x2A0 JUMP JUMPDEST SWAP2 POP POP SWAP3 SWAP2 POP POP JUMP JUMPDEST PUSH1 0x0 PUSH1 0x20 DUP3 DUP5 SUB SLT ISZERO PUSH3 0x337 JUMPI PUSH3 0x336 PUSH3 0x195 JUMP JUMPDEST JUMPDEST PUSH1 0x0 DUP3 ADD MLOAD PUSH8 0xFFFFFFFFFFFFFFFF DUP2 GT ISZERO PUSH3 0x358 JUMPI PUSH3 0x357 PUSH3 0x19A JUMP JUMPDEST JUMPDEST PUSH3 0x366 DUP5 DUP3 DUP6 ADD PUSH3 0x2EB JUMP JUMPDEST SWAP2 POP POP SWAP3 SWAP2 POP POP JUMP JUMPDEST PUSH1 0x0 DUP2 MLOAD SWAP1 POP SWAP2 SWAP1 POP JUMP JUMPDEST PUSH32 0x4E487B7100000000000000000000000000000000000000000000000000000000 PUSH1 0x0 MSTORE PUSH1 0x22 PUSH1 0x4 MSTORE PUSH1 0x24 PUSH1 0x0 REVERT JUMPDEST PUSH1 0x0 PUSH1 0x2 DUP3 DIV SWAP1 POP PUSH1 0x1 DUP3 AND DUP1 PUSH3 0x3C2 JUMPI PUSH1 0x7F DUP3 AND SWAP2 POP JUMPDEST PUSH1 0x20 DUP3 LT DUP2 SUB PUSH3 0x3D8 JUMPI PUSH3 0x3D7 PUSH3 0x37A JUMP JUMPDEST JUMPDEST POP SWAP2 SWAP1 POP JUMP JUMPDEST PUSH1 0x0 DUP2 SWAP1 POP DUP2 PUSH1 0x0 MSTORE PUSH1 0x20 PUSH1 0x0 KECCAK256 SWAP1 POP SWAP2 SWAP1 POP JUMP JUMPDEST PUSH1 0x0 PUSH1 0x20 PUSH1 0x1F DUP4 ADD DIV SWAP1 POP SWAP2 SWAP1 POP JUMP JUMPDEST PUSH1 0x0 DUP3 DUP3 SHL SWAP1 POP SWAP3 SWAP2 POP POP JUMP JUMPDEST PUSH1 0x0 PUSH1 0x8 DUP4 MUL PUSH3 0x442 PUSH32 0xFFFFFFFFFFFFFFFFFFFFFFFFFFFFFFFFFFFFFFFFFFFFFFFFFFFFFFFFFFFFFFFF DUP3 PUSH3 0x403 JUMP JUMPDEST PUSH3 0x44E DUP7 DUP4 PUSH3 0x403 JUMP JUMPDEST SWAP6 POP DUP1 NOT DUP5 AND SWAP4 POP DUP1 DUP7 AND DUP5 OR SWAP3 POP POP POP SWAP4 SWAP3 POP POP POP JUMP JUMPDEST PUSH1 0x0 DUP2 SWAP1 POP SWAP2 SWAP1 POP JUMP JUMPDEST PUSH1 0x0 DUP2 SWAP1 POP SWAP2 SWAP1 POP JUMP JUMPDEST PUSH1 0x0 PUSH3 0x49B PUSH3 0x495 PUSH3 0x48F DUP5 PUSH3 0x466 JUMP JUMPDEST PUSH3 0x470 JUMP JUMPDEST PUSH3 0x466 JUMP JUMPDEST SWAP1 POP SWAP2 SWAP1 POP JUMP JUMPDEST PUSH1 0x0 DUP2 SWAP1 POP SWAP2 SWAP1 POP JUMP JUMPDEST PUSH3 0x4B7 DUP4 PUSH3 0x47A JUMP JUMPDEST PUSH3 0x4CF PUSH3 0x4C6 DUP3 PUSH3 0x4A2 JUMP JUMPDEST DUP5 DUP5 SLOAD PUSH3 0x410 JUMP JUMPDEST DUP3 SSTORE POP POP POP POP JUMP JUMPDEST PUSH1 0x0 SWAP1 JUMP JUMPDEST PUSH3 0x4E6 PUSH3 0x4D7 JUMP JUMPDEST PUSH3 0x4F3 DUP2 DUP5 DUP5 PUSH3 0x4AC JUMP JUMPDEST POP POP POP JUMP JUMPDEST JUMPDEST DUP2 DUP2 LT ISZERO PUSH3 0x51B JUMPI PUSH3 0x50F PUSH1 0x0 DUP3 PUSH3 0x4DC JUMP JUMPDEST PUSH1 0x1 DUP2 ADD SWAP1 POP PUSH3 0x4F9 JUMP JUMPDEST POP POP JUMP JUMPDEST PUSH1 0x1F DUP3 GT ISZERO PUSH3 0x56A JUMPI PUSH3 0x534 DUP2 PUSH3 0x3DE JUMP JUMPDEST PUSH3 0x53F DUP5 PUSH3 0x3F3 JUMP JUMPDEST DUP2 ADD PUSH1 0x20 DUP6 LT ISZERO PUSH3 0x54F JUMPI DUP2 SWAP1 POP JUMPDEST PUSH3 0x567 PUSH3 0x55E DUP6 PUSH3 0x3F3 JUMP JUMPDEST DUP4 ADD DUP3 PUSH3 0x4F8 JUMP JUMPDEST POP POP JUMPDEST POP POP POP JUMP JUMPDEST PUSH1 0x0 DUP3 DUP3 SHR SWAP1 POP SWAP3 SWAP2 POP POP JUMP JUMPDEST PUSH1 0x0 PUSH3 0x58F PUSH1 0x0 NOT DUP5 PUSH1 0x8 MUL PUSH3 0x56F JUMP JUMPDEST NOT DUP1 DUP4 AND SWAP2 POP POP SWAP3 SWAP2 POP POP JUMP JUMPDEST PUSH1 0x0 PUSH3 0x5AA DUP4 DUP4 PUSH3 0x57C JUMP JUMPDEST SWAP2 POP DUP3 PUSH1 0x2 MUL DUP3 OR SWAP1 POP SWAP3 SWAP2 POP POP JUMP JUMPDEST PUSH3 0x5C5 DUP3 PUSH3 0x36F JUMP JUMPDEST PUSH8 0xFFFFFFFFFFFFFFFF DUP2 GT ISZERO PUSH3 0x5E1 JUMPI PUSH3 0x5E0 PUSH3 0x1BA JUMP JUMPDEST JUMPDEST PUSH3 0x5ED DUP3 SLOAD PUSH3 0x3A9 JUMP JUMPDEST PUSH3 0x5FA DUP3 DUP3 DUP6 PUSH3 0x51F JUMP JUMPDEST PUSH1 0x0 PUSH1 0x20 SWAP1 POP PUSH1 0x1F DUP4 GT PUSH1 0x1 DUP2 EQ PUSH3 0x632 JUMPI PUSH1 0x0 DUP5 ISZERO PUSH3 0x61D JUMPI DUP3 DUP8 ADD MLOAD SWAP1 POP JUMPDEST PUSH3 0x629 DUP6 DUP3 PUSH3 0x59C JUMP JUMPDEST DUP7 SSTORE POP PUSH3 0x699 JUMP JUMPDEST PUSH1 0x1F NOT DUP5 AND PUSH3 0x642 DUP7 PUSH3 0x3DE JUMP JUMPDEST PUSH1 0x0 JUMPDEST DUP3 DUP2 LT ISZERO PUSH3 0x66C JUMPI DUP5 DUP10 ADD MLOAD DUP3 SSTORE PUSH1 0x1 DUP3 ADD SWAP2 POP PUSH1 0x20 DUP6 ADD SWAP5 POP PUSH1 0x20 DUP2 ADD SWAP1 POP PUSH3 0x645 JUMP JUMPDEST DUP7 DUP4 LT ISZERO PUSH3 0x68C JUMPI DUP5 DUP10 ADD MLOAD PUSH3 0x688 PUSH1 0x1F DUP10 AND DUP3 PUSH3 0x57C JUMP JUMPDEST DUP4 SSTORE POP JUMPDEST PUSH1 0x1 PUSH1 0x2 DUP9 MUL ADD DUP9 SSTORE POP POP POP JUMPDEST POP POP POP POP POP POP JUMP JUMPDEST PUSH1 0x0 DUP3 DUP3 MSTORE PUSH1 0x20 DUP3 ADD SWAP1 POP SWAP3 SWAP2 POP POP JUMP JUMPDEST PUSH1 0x0 PUSH3 0x6BF DUP3 PUSH3 0x36F JUMP JUMPDEST PUSH3 0x6CB DUP2 DUP6 PUSH3 0x6A1 JUMP JUMPDEST SWAP4 POP PUSH3 0x6DD DUP2 DUP6 PUSH1 0x20 DUP7 ADD PUSH3 0x274 JUMP JUMPDEST PUSH3 0x6E8 DUP2 PUSH3 0x1A9 JUMP JUMPDEST DUP5 ADD SWAP2 POP POP SWAP3 SWAP2 POP POP JUMP JUMPDEST PUSH1 0x0 PUSH1 0x40 DUP3 ADD SWAP1 POP DUP2 DUP2 SUB PUSH1 0x0 DUP4 ADD MSTORE PUSH3 0x70F DUP2 DUP6 PUSH3 0x6B2 JUMP JUMPDEST SWAP1 POP DUP2 DUP2 SUB PUSH1 0x20 DUP4 ADD MSTORE PUSH3 0x725 DUP2 DUP5 PUSH3 0x6B2 JUMP JUMPDEST SWAP1 POP SWAP4 SWAP3 POP POP POP JUMP JUMPDEST PUSH32 0x4E487B7100000000000000000000000000000000000000000000000000000000 PUSH1 0x0 MSTORE PUSH1 0x51 PUSH1 0x4 MSTORE PUSH1 0x24 PUSH1 0x0 REVERT JUMPDEST PUSH2 0x8B6 DUP1 PUSH3 0x76D PUSH1 0x0 CODECOPY PUSH1 0x0 RETURN INVALID PUSH1 0x80 PUSH1 0x40 MSTORE CALLVALUE DUP1 ISZERO PUSH2 0x10 JUMPI PUSH1 0x0 DUP1 REVERT JUMPDEST POP PUSH1 0x4 CALLDATASIZE LT PUSH2 0x36 JUMPI PUSH1 0x0 CALLDATALOAD PUSH1 0xE0 SHR DUP1 PUSH4 0xA4136862 EQ PUSH2 0x3B JUMPI DUP1 PUSH4 0xCFAE3217 EQ PUSH2 0x57 JUMPI JUMPDEST PUSH1 0x0 DUP1 REVERT JUMPDEST PUSH2 0x55 PUSH1 0x4 DUP1 CALLDATASIZE SUB DUP2 ADD SWAP1 PUSH2 0x50 SWAP2 SWAP1 PUSH2 0x410 JUMP JUMPDEST PUSH2 0x75 JUMP JUMPDEST STOP JUMPDEST PUSH2 0x5F PUSH2 0x135 JUMP JUMPDEST PUSH1 0x40 MLOAD PUSH2 0x6C SWAP2 SWAP1 PUSH2 0x4D8 JUMP JUMPDEST PUSH1 0x40 MLOAD DUP1 SWAP2 SUB SWAP1 RETURN JUMPDEST PUSH2 0x122 PUSH1 0x40 MLOAD DUP1 PUSH1 0x60 ADD PUSH1 0x40 MSTORE DUP1 PUSH1 0x23 DUP2 MSTORE PUSH1 0x20 ADD PUSH2 0x85E PUSH1 0x23 SWAP2 CODECOPY PUSH1 0x0 DUP1 SLOAD PUSH2 0x9E SWAP1 PUSH2 0x529 JUMP JUMPDEST DUP1 PUSH1 0x1F ADD PUSH1 0x20 DUP1 SWAP2 DIV MUL PUSH1 0x20 ADD PUSH1 0x40 MLOAD SWAP1 DUP2 ADD PUSH1 0x40 MSTORE DUP1 SWAP3 SWAP2 SWAP1 DUP2 DUP2 MSTORE PUSH1 0x20 ADD DUP3 DUP1 SLOAD PUSH2 0xCA SWAP1 PUSH2 0x529 JUMP JUMPDEST DUP1 ISZERO PUSH2 0x117 JUMPI DUP1 PUSH1 0x1F LT PUSH2 0xEC JUMPI PUSH2 0x100 DUP1 DUP4 SLOAD DIV MUL DUP4 MSTORE SWAP2 PUSH1 0x20 ADD SWAP2 PUSH2 0x117 JUMP JUMPDEST DUP3 ADD SWAP2 SWAP1 PUSH1 0x0 MSTORE PUSH1 0x20 PUSH1 0x0 KECCAK256 SWAP1 JUMPDEST DUP2 SLOAD DUP2 MSTORE SWAP1 PUSH1 0x1 ADD SWAP1 PUSH1 0x20 ADD DUP1 DUP4 GT PUSH2 0xFA JUMPI DUP3 SWAP1 SUB PUSH1 0x1F AND DUP3 ADD SWAP2 JUMPDEST POP POP POP POP POP DUP4 PUSH2 0x1E8 JUMP JUMPDEST DUP1 PUSH1 0x0 SWAP1 DUP2 PUSH2 0x131 SWAP2 SWAP1 PUSH2 0x710 JUMP JUMPDEST POP POP JUMP JUMPDEST PUSH1 0x60 PUSH1 0x0 DUP1 SLOAD PUSH2 0x144 SWAP1 PUSH2 0x529 JUMP JUMPDEST DUP1 PUSH1 0x1F ADD PUSH1 0x20 DUP1 SWAP2 DIV MUL PUSH1 0x20 ADD PUSH1 0x40 MLOAD SWAP1 DUP2 ADD PUSH1 0x40 MSTORE DUP1 SWAP3 SWAP2 SWAP1 DUP2 DUP2 MSTORE PUSH1 0x20 ADD DUP3 DUP1 SLOAD PUSH2 0x170 SWAP1 PUSH2 0x529 JUMP JUMPDEST DUP1 ISZERO PUSH2 0x1BD JUMPI DUP1 PUSH1 0x1F LT PUSH2 0x192 JUMPI PUSH2 0x100 DUP1 DUP4 SLOAD DIV MUL DUP4 MSTORE SWAP2 PUSH1 0x20 ADD SWAP2 PUSH2 0x1BD JUMP JUMPDEST DUP3 ADD SWAP2 SWAP1 PUSH1 0x0 MSTORE PUSH1 0x20 PUSH1 0x0 KECCAK256 SWAP1 JUMPDEST DUP2 SLOAD DUP2 MSTORE SWAP1 PUSH1 0x1 ADD SWAP1 PUSH1 0x20 ADD DUP1 DUP4 GT PUSH2 0x1A0 JUMPI DUP3 SWAP1 SUB PUSH1 0x1F AND DUP3 ADD SWAP2 JUMPDEST POP POP POP POP POP SWAP1 POP SWAP1 JUMP JUMPDEST PUSH1 0x0 PUSH11 0x636F6E736F6C652E6C6F67 SWAP1 POP PUSH1 0x0 DUP1 DUP4 MLOAD PUSH1 0x20 DUP6 ADD DUP5 GAS STATICCALL POP POP POP JUMP JUMPDEST PUSH2 0x282 DUP4 DUP4 DUP4 PUSH1 0x40 MLOAD PUSH1 0x24 ADD PUSH2 0x200 SWAP4 SWAP3 SWAP2 SWAP1 PUSH2 0x7E2 JUMP JUMPDEST PUSH1 0x40 MLOAD PUSH1 0x20 DUP2 DUP4 SUB SUB DUP2 MSTORE SWAP1 PUSH1 0x40 MSTORE PUSH32 0x2CED7CEF00000000000000000000000000000000000000000000000000000000 PUSH28 0xFFFFFFFFFFFFFFFFFFFFFFFFFFFFFFFFFFFFFFFFFFFFFFFFFFFFFFFF NOT AND PUSH1 0x20 DUP3 ADD DUP1 MLOAD PUSH28 0xFFFFFFFFFFFFFFFFFFFFFFFFFFFFFFFFFFFFFFFFFFFFFFFFFFFFFFFF DUP4 DUP2 DUP4 AND OR DUP4 MSTORE POP POP POP POP PUSH2 0x287 JUMP JUMPDEST POP POP POP JUMP JUMPDEST PUSH2 0x29E DUP2 PUSH2 0x296 PUSH2 0x1C7 PUSH2 0x2A1 JUMP JUMPDEST PUSH4 0xFFFFFFFF AND JUMP JUMPDEST POP JUMP JUMPDEST PUSH2 0x2AC DUP2 SWAP1 POP SWAP2 SWAP1 POP JUMP JUMPDEST PUSH2 0x2B4 PUSH2 0x82E JUMP JUMPDEST JUMP JUMPDEST PUSH1 0x0 PUSH1 0x40 MLOAD SWAP1 POP SWAP1 JUMP JUMPDEST PUSH1 0x0 DUP1 REVERT JUMPDEST PUSH1 0x0 DUP1 REVERT JUMPDEST PUSH1 0x0 DUP1 REVERT JUMPDEST PUSH1 0x0 DUP1 REVERT JUMPDEST PUSH1 0x0 PUSH1 0x1F NOT PUSH1 0x1F DUP4 ADD AND SWAP1 POP SWAP2 SWAP1 POP JUMP JUMPDEST PUSH32 0x4E487B7100000000000000000000000000000000000000000000000000000000 PUSH1 0x0 MSTORE PUSH1 0x41 PUSH1 0x4 MSTORE PUSH1 0x24 PUSH1 0x0 REVERT JUMPDEST PUSH2 0x31D DUP3 PUSH2 0x2D4 JUMP JUMPDEST DUP2 ADD DUP2 DUP2 LT PUSH8 0xFFFFFFFFFFFFFFFF DUP3 GT OR ISZERO PUSH2 0x33C JUMPI PUSH2 0x33B PUSH2 0x2E5 JUMP JUMPDEST JUMPDEST DUP1 PUSH1 0x40 MSTORE POP POP POP JUMP JUMPDEST PUSH1 0x0 PUSH2 0x34F PUSH2 0x2B6 JUMP JUMPDEST SWAP1 POP PUSH2 0x35B DUP3 DUP3 PUSH2 0x314 JUMP JUMPDEST SWAP2 SWAP1 POP JUMP JUMPDEST PUSH1 0x0 PUSH8 0xFFFFFFFFFFFFFFFF DUP3 GT ISZERO PUSH2 0x37B JUMPI PUSH2 0x37A PUSH2 0x2E5 JUMP JUMPDEST JUMPDEST PUSH2 0x384 DUP3 PUSH2 0x2D4 JUMP JUMPDEST SWAP1 POP PUSH1 0x20 DUP2 ADD SWAP1 POP SWAP2 SWAP1 POP JUMP JUMPDEST DUP3 DUP2 DUP4 CALLDATACOPY PUSH1 0x0 DUP4 DUP4 ADD MSTORE POP POP POP JUMP JUMPDEST PUSH1 0x0 PUSH2 0x3B3 PUSH2 0x3AE DUP5 PUSH2 0x360 JUMP JUMPDEST PUSH2 0x345 JUMP JUMPDEST SWAP1 POP DUP3 DUP2 MSTORE PUSH1 0x20 DUP2 ADD DUP5 DUP5 DUP5 ADD GT ISZERO PUSH2 0x3CF JUMPI PUSH2 0x3CE PUSH2 0x2CF JUMP JUMPDEST JUMPDEST PUSH2 0x3DA DUP5 DUP3 DUP6 PUSH2 0x391 JUMP JUMPDEST POP SWAP4 SWAP3 POP POP POP JUMP JUMPDEST PUSH1 0x0 DUP3 PUSH1 0x1F DUP4 ADD SLT PUSH2 0x3F7 JUMPI PUSH2 0x3F6 PUSH2 0x2CA JUMP JUMPDEST JUMPDEST DUP2 CALLDATALOAD PUSH2 0x407 DUP5 DUP3 PUSH1 0x20 DUP7 ADD PUSH2 0x3A0 JUMP JUMPDEST SWAP2 POP POP SWAP3 SWAP2 POP POP JUMP JUMPDEST PUSH1 0x0 PUSH1 0x20 DUP3 DUP5 SUB SLT ISZERO PUSH2 0x426 JUMPI PUSH2 0x425 PUSH2 0x2C0 JUMP JUMPDEST JUMPDEST PUSH1 0x0 DUP3 ADD CALLDATALOAD PUSH8 0xFFFFFFFFFFFFFFFF DUP2 GT ISZERO PUSH2 0x444 JUMPI PUSH2 0x443 PUSH2 0x2C5 JUMP JUMPDEST JUMPDEST PUSH2 0x450 DUP5 DUP3 DUP6 ADD PUSH2 0x3E2 JUMP JUMPDEST SWAP2 POP POP SWAP3 SWAP2 POP POP JUMP JUMPDEST PUSH1 0x0 DUP2 MLOAD SWAP1 POP SWAP2 SWAP1 POP JUMP JUMPDEST PUSH1 0x0 DUP3 DUP3 MSTORE PUSH1 0x20 DUP3 ADD SWAP1 POP SWAP3 SWAP2 POP POP JUMP JUMPDEST PUSH1 0x0 JUMPDEST DUP4 DUP2 LT ISZERO PUSH2 0x493 JUMPI DUP1 DUP3 ADD MLOAD DUP2 DUP5 ADD MSTORE PUSH1 0x20 DUP2 ADD SWAP1 POP PUSH2 0x478 JUMP JUMPDEST PUSH1 0x0 DUP5 DUP5 ADD MSTORE POP POP POP POP JUMP JUMPDEST PUSH1 0x0 PUSH2 0x4AA DUP3 PUSH2 0x459 JUMP JUMPDEST PUSH2 0x4B4 DUP2 DUP6 PUSH2 0x464 JUMP JUMPDEST SWAP4 POP PUSH2 0x4C4 DUP2 DUP6 PUSH1 0x20 DUP7 ADD PUSH2 0x475 JUMP JUMPDEST PUSH2 0x4CD DUP2 PUSH2 0x2D4 JUMP JUMPDEST DUP5 ADD SWAP2 POP POP SWAP3 SWAP2 POP POP JUMP JUMPDEST PUSH1 0x0 PUSH1 0x20 DUP3 ADD SWAP1 POP DUP2 DUP2 SUB PUSH1 0x0 DUP4 ADD MSTORE PUSH2 0x4F2 DUP2 DUP5 PUSH2 0x49F JUMP JUMPDEST SWAP1 POP SWAP3 SWAP2 POP POP JUMP JUMPDEST PUSH32 0x4E487B7100000000000000000000000000000000000000000000000000000000 PUSH1 0x0 MSTORE PUSH1 0x22 PUSH1 0x4 MSTORE PUSH1 0x24 PUSH1 0x0 REVERT JUMPDEST PUSH1 0x0 PUSH1 0x2 DUP3 DIV SWAP1 POP PUSH1 0x1 DUP3 AND DUP1 PUSH2 0x541 JUMPI PUSH1 0x7F DUP3 AND SWAP2 POP JUMPDEST PUSH1 0x20 DUP3 LT DUP2 SUB PUSH2 0x554 JUMPI PUSH2 0x553 PUSH2 0x4FA JUMP JUMPDEST JUMPDEST POP SWAP2 SWAP1 POP JUMP JUMPDEST PUSH1 0x0 DUP2 SWAP1 POP DUP2 PUSH1 0x0 MSTORE PUSH1 0x20 PUSH1 0x0 KECCAK256 SWAP1 POP SWAP2 SWAP1 POP JUMP JUMPDEST PUSH1 0x0 PUSH1 0x20 PUSH1 0x1F DUP4 ADD DIV SWAP1 POP SWAP2 SWAP1 POP JUMP JUMPDEST PUSH1 0x0 DUP3 DUP3 SHL SWAP1 POP SWAP3 SWAP2 POP POP JUMP JUMPDEST PUSH1 0x0 PUSH1 0x8 DUP4 MUL PUSH2 0x5BC PUSH32 0xFFFFFFFFFFFFFFFFFFFFFFFFFFFFFFFFFFFFFFFFFFFFFFFFFFFFFFFFFFFFFFFF DUP3 PUSH2 0x57F JUMP JUMPDEST PUSH2 0x5C6 DUP7 DUP4 PUSH2 0x57F JUMP JUMPDEST SWAP6 POP DUP1 NOT DUP5 AND SWAP4 POP DUP1 DUP7 AND DUP5 OR SWAP3 POP POP POP SWAP4 SWAP3 POP POP POP JUMP JUMPDEST PUSH1 0x0 DUP2 SWAP1 POP SWAP2 SWAP1 POP JUMP JUMPDEST PUSH1 0x0 DUP2 SWAP1 POP SWAP2 SWAP1 POP JUMP JUMPDEST PUSH1 0x0 PUSH2 0x60D PUSH2 0x608 PUSH2 0x603 DUP5 PUSH2 0x5DE JUMP JUMPDEST PUSH2 0x5E8 JUMP JUMPDEST PUSH2 0x5DE JUMP JUMPDEST SWAP1 POP SWAP2 SWAP1 POP JUMP JUMPDEST PUSH1 0x0 DUP2 SWAP1 POP SWAP2 SWAP1 POP JUMP JUMPDEST PUSH2 0x627 DUP4 PUSH2 0x5F2 JUMP JUMPDEST PUSH2 0x63B PUSH2 0x633 DUP3 PUSH2 0x614 JUMP JUMPDEST DUP5 DUP5 SLOAD PUSH2 0x58C JUMP JUMPDEST DUP3 SSTORE POP POP POP POP JUMP JUMPDEST PUSH1 0x0 SWAP1 JUMP JUMPDEST PUSH2 0x650 PUSH2 0x643 JUMP JUMPDEST PUSH2 0x65B DUP2 DUP5 DUP5 PUSH2 0x61E JUMP JUMPDEST POP POP POP JUMP JUMPDEST JUMPDEST DUP2 DUP2 LT ISZERO PUSH2 0x67F JUMPI PUSH2 0x674 PUSH1 0x0 DUP3 PUSH2 0x648 JUMP JUMPDEST PUSH1 0x1 DUP2 ADD SWAP1 POP PUSH2 0x661 JUMP JUMPDEST POP POP JUMP JUMPDEST PUSH1 0x1F DUP3 GT ISZERO PUSH2 0x6C4 JUMPI PUSH2 0x695 DUP2 PUSH2 0x55A JUMP JUMPDEST PUSH2 0x69E DUP5 PUSH2 0x56F JUMP JUMPDEST DUP2 ADD PUSH1 0x20 DUP6 LT ISZERO PUSH2 0x6AD JUMPI DUP2 SWAP1 POP JUMPDEST PUSH2 0x6C1 PUSH2 0x6B9 DUP6 PUSH2 0x56F JUMP JUMPDEST DUP4 ADD DUP3 PUSH2 0x660 JUMP JUMPDEST POP POP JUMPDEST POP POP POP JUMP JUMPDEST PUSH1 0x0 DUP3 DUP3 SHR SWAP1 POP SWAP3 SWAP2 POP POP JUMP JUMPDEST PUSH1 0x0 PUSH2 0x6E7 PUSH1 0x0 NOT DUP5 PUSH1 0x8 MUL PUSH2 0x6C9 JUMP JUMPDEST NOT DUP1 DUP4 AND SWAP2 POP POP SWAP3 SWAP2 POP POP JUMP JUMPDEST PUSH1 0x0 PUSH2 0x700 DUP4 DUP4 PUSH2 0x6D6 JUMP JUMPDEST SWAP2 POP DUP3 PUSH1 0x2 MUL DUP3 OR SWAP1 POP SWAP3 SWAP2 POP POP JUMP JUMPDEST PUSH2 0x719 DUP3 PUSH2 0x459 JUMP JUMPDEST PUSH8 0xFFFFFFFFFFFFFFFF DUP2 GT ISZERO PUSH2 0x732 JUMPI PUSH2 0x731 PUSH2 0x2E5 JUMP JUMPDEST JUMPDEST PUSH2 0x73C DUP3 SLOAD PUSH2 0x529 JUMP JUMPDEST PUSH2 0x747 DUP3 DUP3 DUP6 PUSH2 0x683 JUMP JUMPDEST PUSH1 0x0 PUSH1 0x20 SWAP1 POP PUSH1 0x1F DUP4 GT PUSH1 0x1 DUP2 EQ PUSH2 0x77A JUMPI PUSH1 0x0 DUP5 ISZERO PUSH2 0x768 JUMPI DUP3 DUP8 ADD MLOAD SWAP1 POP JUMPDEST PUSH2 0x772 DUP6 DUP3 PUSH2 0x6F4 JUMP JUMPDEST DUP7 SSTORE POP PUSH2 0x7DA JUMP JUMPDEST PUSH1 0x1F NOT DUP5 AND PUSH2 0x788 DUP7 PUSH2 0x55A JUMP JUMPDEST PUSH1 0x0 JUMPDEST DUP3 DUP2 LT ISZERO PUSH2 0x7B0 JUMPI DUP5 DUP10 ADD MLOAD DUP3 SSTORE PUSH1 0x1 DUP3 ADD SWAP2 POP PUSH1 0x20 DUP6 ADD SWAP5 POP PUSH1 0x20 DUP2 ADD SWAP1 POP PUSH2 0x78B JUMP JUMPDEST DUP7 DUP4 LT ISZERO PUSH2 0x7CD JUMPI DUP5 DUP10 ADD MLOAD PUSH2 0x7C9 PUSH1 0x1F DUP10 AND DUP3 PUSH2 0x6D6 JUMP JUMPDEST DUP4 SSTORE POP JUMPDEST PUSH1 0x1 PUSH1 0x2 DUP9 MUL ADD DUP9 SSTORE POP POP POP JUMPDEST POP POP POP POP POP POP JUMP JUMPDEST PUSH1 0x0 PUSH1 0x60 DUP3 ADD SWAP1 POP DUP2 DUP2 SUB PUSH1 0x0 DUP4 ADD MSTORE PUSH2 0x7FC DUP2 DUP7 PUSH2 0x49F JUMP JUMPDEST SWAP1 POP DUP2 DUP2 SUB PUSH1 0x20 DUP4 ADD MSTORE PUSH2 0x810 DUP2 DUP6 PUSH2 0x49F JUMP JUMPDEST SWAP1 POP DUP2 DUP2 SUB PUSH1 0x40 DUP4 ADD MSTORE PUSH2 0x824 DUP2 DUP5 PUSH2 0x49F JUMP JUMPDEST SWAP1 POP SWAP5 SWAP4 POP POP POP POP JUMP JUMPDEST PUSH32 0x4E487B7100000000000000000000000000000000000000000000000000000000 PUSH1 0x0 MSTORE PUSH1 0x51 PUSH1 0x4 MSTORE PUSH1 0x24 PUSH1 0x0 REVERT INVALID NUMBER PUSH9 0x616E67696E67206772 PUSH6 0x6574696E6720 PUSH7 0x726F6D20272573 0x27 KECCAK256 PUSH21 0x6F2027257327A26469706673582212204BADD371E9 SWAP7 0x2A PUSH2 0x5BEF CALLDATASIZE 0x5D 0xDF 0xE8 SWAP3 SWAP7 0xEF 0xDF DUP14 OR BASEFEE 0xCF 0x21 PUSH3 0x923FA0 LOG3 0xBA SWAP12 PUSH5 0xC264736F6C PUSH4 0x43000814 STOP CALLER PREVRANDAO PUSH6 0x706C6F79696E PUSH8 0x2061204772656574 PUSH6 0x722077697468 KECCAK256 PUSH8 0x72656574696E673A "},"methodIdentifiers":{"greet()":"cfae3217","setGreeting(string)":"a4136862"}}}}}